{
  "_format": "hh-sol-artifact-1",
  "contractName": "SuperNFT",
  "sourceName": "contracts/SuperNFT.sol",
  "abi": [
    {
      "inputs": [
        {
          "internalType": "string",
          "name": "_name",
          "type": "string"
        },
        {
          "internalType": "string",
          "name": "_symbol",
          "type": "string"
        }
      ],
      "stateMutability": "nonpayable",
      "type": "constructor"
    },
    {
      "anonymous": false,
      "inputs": [
        {
          "indexed": true,
          "internalType": "address",
          "name": "owner",
          "type": "address"
        },
        {
          "indexed": true,
          "internalType": "address",
          "name": "approved",
          "type": "address"
        },
        {
          "indexed": true,
          "internalType": "uint256",
          "name": "tokenId",
          "type": "uint256"
        }
      ],
      "name": "Approval",
      "type": "event"
    },
    {
      "anonymous": false,
      "inputs": [
        {
          "indexed": true,
          "internalType": "address",
          "name": "owner",
          "type": "address"
        },
        {
          "indexed": true,
          "internalType": "address",
          "name": "operator",
          "type": "address"
        },
        {
          "indexed": false,
          "internalType": "bool",
          "name": "approved",
          "type": "bool"
        }
      ],
      "name": "ApprovalForAll",
      "type": "event"
    },
    {
      "anonymous": false,
      "inputs": [
        {
          "indexed": true,
          "internalType": "address",
          "name": "previousOwner",
          "type": "address"
        },
        {
          "indexed": true,
          "internalType": "address",
          "name": "newOwner",
          "type": "address"
        }
      ],
      "name": "OwnershipTransferred",
      "type": "event"
    },
    {
      "anonymous": false,
      "inputs": [
        {
          "indexed": true,
          "internalType": "address",
          "name": "from",
          "type": "address"
        },
        {
          "indexed": true,
          "internalType": "address",
          "name": "to",
          "type": "address"
        },
        {
          "indexed": true,
          "internalType": "uint256",
          "name": "tokenId",
          "type": "uint256"
        }
      ],
      "name": "Transfer",
      "type": "event"
    },
    {
      "inputs": [
        {
          "internalType": "address",
          "name": "to",
          "type": "address"
        },
        {
          "internalType": "uint256",
          "name": "tokenId",
          "type": "uint256"
        }
      ],
      "name": "approve",
      "outputs": [],
      "stateMutability": "nonpayable",
      "type": "function"
    },
    {
      "inputs": [
        {
          "internalType": "address",
          "name": "owner",
          "type": "address"
        }
      ],
      "name": "balanceOf",
      "outputs": [
        {
          "internalType": "uint256",
          "name": "",
          "type": "uint256"
        }
      ],
      "stateMutability": "view",
      "type": "function"
    },
    {
      "inputs": [
        {
          "internalType": "string",
          "name": "tokenURI",
          "type": "string"
        }
      ],
      "name": "createNFT",
      "outputs": [
        {
          "internalType": "uint256",
          "name": "",
          "type": "uint256"
        }
      ],
      "stateMutability": "nonpayable",
      "type": "function"
    },
    {
      "inputs": [],
      "name": "exchange",
      "outputs": [
        {
          "internalType": "address",
          "name": "",
          "type": "address"
        }
      ],
      "stateMutability": "view",
      "type": "function"
    },
    {
      "inputs": [
        {
          "internalType": "uint256",
          "name": "tokenId",
          "type": "uint256"
        }
      ],
      "name": "getApproved",
      "outputs": [
        {
          "internalType": "address",
          "name": "",
          "type": "address"
        }
      ],
      "stateMutability": "view",
      "type": "function"
    },
    {
      "inputs": [
        {
          "internalType": "address",
          "name": "owner",
          "type": "address"
        },
        {
          "internalType": "address",
          "name": "operator",
          "type": "address"
        }
      ],
      "name": "isApprovedForAll",
      "outputs": [
        {
          "internalType": "bool",
          "name": "",
          "type": "bool"
        }
      ],
      "stateMutability": "view",
      "type": "function"
    },
    {
      "inputs": [],
      "name": "name",
      "outputs": [
        {
          "internalType": "string",
          "name": "",
          "type": "string"
        }
      ],
      "stateMutability": "view",
      "type": "function"
    },
    {
      "inputs": [],
      "name": "owner",
      "outputs": [
        {
          "internalType": "address",
          "name": "",
          "type": "address"
        }
      ],
      "stateMutability": "view",
      "type": "function"
    },
    {
      "inputs": [
        {
          "internalType": "uint256",
          "name": "tokenId",
          "type": "uint256"
        }
      ],
      "name": "ownerOf",
      "outputs": [
        {
          "internalType": "address",
          "name": "",
          "type": "address"
        }
      ],
      "stateMutability": "view",
      "type": "function"
    },
    {
      "inputs": [],
      "name": "renounceOwnership",
      "outputs": [],
      "stateMutability": "nonpayable",
      "type": "function"
    },
    {
      "inputs": [
        {
          "internalType": "address",
          "name": "from",
          "type": "address"
        },
        {
          "internalType": "address",
          "name": "to",
          "type": "address"
        },
        {
          "internalType": "uint256",
          "name": "tokenId",
          "type": "uint256"
        }
      ],
      "name": "safeTransferFrom",
      "outputs": [],
      "stateMutability": "nonpayable",
      "type": "function"
    },
    {
      "inputs": [
        {
          "internalType": "address",
          "name": "from",
          "type": "address"
        },
        {
          "internalType": "address",
          "name": "to",
          "type": "address"
        },
        {
          "internalType": "uint256",
          "name": "tokenId",
          "type": "uint256"
        },
        {
          "internalType": "bytes",
          "name": "_data",
          "type": "bytes"
        }
      ],
      "name": "safeTransferFrom",
      "outputs": [],
      "stateMutability": "nonpayable",
      "type": "function"
    },
    {
      "inputs": [
        {
          "internalType": "address",
          "name": "operator",
          "type": "address"
        },
        {
          "internalType": "bool",
          "name": "approved",
          "type": "bool"
        }
      ],
      "name": "setApprovalForAll",
      "outputs": [],
      "stateMutability": "nonpayable",
      "type": "function"
    },
    {
      "inputs": [
        {
          "internalType": "address",
          "name": "_exchangeAddress",
          "type": "address"
        }
      ],
      "name": "setExchangeAddress",
      "outputs": [],
      "stateMutability": "nonpayable",
      "type": "function"
    },
    {
      "inputs": [
        {
          "internalType": "bytes4",
          "name": "interfaceId",
          "type": "bytes4"
        }
      ],
      "name": "supportsInterface",
      "outputs": [
        {
          "internalType": "bool",
          "name": "",
          "type": "bool"
        }
      ],
      "stateMutability": "view",
      "type": "function"
    },
    {
      "inputs": [],
      "name": "symbol",
      "outputs": [
        {
          "internalType": "string",
          "name": "",
          "type": "string"
        }
      ],
      "stateMutability": "view",
      "type": "function"
    },
    {
      "inputs": [
        {
          "internalType": "uint256",
          "name": "tokenId",
          "type": "uint256"
        }
      ],
      "name": "tokenURI",
      "outputs": [
        {
          "internalType": "string",
          "name": "",
          "type": "string"
        }
      ],
      "stateMutability": "view",
      "type": "function"
    },
    {
      "inputs": [
        {
          "internalType": "address",
          "name": "from",
          "type": "address"
        },
        {
          "internalType": "address",
          "name": "to",
          "type": "address"
        },
        {
          "internalType": "uint256",
          "name": "tokenId",
          "type": "uint256"
        }
      ],
      "name": "transferFrom",
      "outputs": [],
      "stateMutability": "nonpayable",
      "type": "function"
    },
    {
      "inputs": [
        {
          "internalType": "address",
          "name": "newOwner",
          "type": "address"
        }
      ],
      "name": "transferOwnership",
      "outputs": [],
      "stateMutability": "nonpayable",
      "type": "function"
    }
  ],
  "bytecode": "0x60806040523480156200001157600080fd5b5060405162003a3038038062003a30833981810160405281019062000037919062000285565b818181600090805190602001906200005192919062000163565b5080600190805190602001906200006a92919062000163565b5050506200008d620000816200009560201b60201c565b6200009d60201b60201c565b505062000429565b600033905090565b6000600760009054906101000a900473ffffffffffffffffffffffffffffffffffffffff16905081600760006101000a81548173ffffffffffffffffffffffffffffffffffffffff021916908373ffffffffffffffffffffffffffffffffffffffff1602179055508173ffffffffffffffffffffffffffffffffffffffff168173ffffffffffffffffffffffffffffffffffffffff167f8be0079c531659141344cd1fd0a4f28419497f9722a3daafe3b4186f6b6457e060405160405180910390a35050565b828054620001719062000395565b90600052602060002090601f016020900481019282620001955760008555620001e1565b82601f10620001b057805160ff1916838001178555620001e1565b82800160010185558215620001e1579182015b82811115620001e0578251825591602001919060010190620001c3565b5b509050620001f09190620001f4565b5090565b5b808211156200020f576000816000905550600101620001f5565b5090565b60006200022a62000224846200032c565b620002f8565b9050828152602081018484840111156200024357600080fd5b620002508482856200035f565b509392505050565b600082601f8301126200026a57600080fd5b81516200027c84826020860162000213565b91505092915050565b600080604083850312156200029957600080fd5b600083015167ffffffffffffffff811115620002b457600080fd5b620002c28582860162000258565b925050602083015167ffffffffffffffff811115620002e057600080fd5b620002ee8582860162000258565b9150509250929050565b6000604051905081810181811067ffffffffffffffff82111715620003225762000321620003fa565b5b8060405250919050565b600067ffffffffffffffff8211156200034a5762000349620003fa565b5b601f19601f8301169050602081019050919050565b60005b838110156200037f57808201518184015260208101905062000362565b838111156200038f576000848401525b50505050565b60006002820490506001821680620003ae57607f821691505b60208210811415620003c557620003c4620003cb565b5b50919050565b7f4e487b7100000000000000000000000000000000000000000000000000000000600052602260045260246000fd5b7f4e487b7100000000000000000000000000000000000000000000000000000000600052604160045260246000fd5b6135f780620004396000396000f3fe608060405234801561001057600080fd5b50600436106101215760003560e01c80638da5cb5b116100ad578063d082ea8c11610071578063d082ea8c14610306578063d2f7265a14610322578063da2ed03e14610340578063e985e9c514610370578063f2fde38b146103a057610121565b80638da5cb5b1461026257806395d89b4114610280578063a22cb4651461029e578063b88d4fde146102ba578063c87b56dd146102d657610121565b806323b872dd116100f457806323b872dd146101c057806342842e0e146101dc5780636352211e146101f857806370a0823114610228578063715018a61461025857610121565b806301ffc9a71461012657806306fdde0314610156578063081812fc14610174578063095ea7b3146101a4575b600080fd5b610140600480360381019061013b9190612424565b6103bc565b60405161014d9190612e33565b60405180910390f35b61015e61049e565b60405161016b9190612e4e565b60405180910390f35b61018e600480360381019061018991906124b7565b610530565b60405161019b9190612dcc565b60405180910390f35b6101be60048036038101906101b991906123e8565b6105b5565b005b6101da60048036038101906101d591906122e2565b6106cd565b005b6101f660048036038101906101f191906122e2565b6108b3565b005b610212600480360381019061020d91906124b7565b610a59565b60405161021f9190612dcc565b60405180910390f35b610242600480360381019061023d919061227d565b610b0b565b60405161024f919061313c565b60405180910390f35b610260610bc3565b005b61026a610c4b565b6040516102779190612dcc565b60405180910390f35b610288610c75565b6040516102959190612e4e565b60405180910390f35b6102b860048036038101906102b391906123ac565b610d07565b005b6102d460048036038101906102cf9190612331565b610d1d565b005b6102f060048036038101906102eb91906124b7565b610d7f565b6040516102fd9190612e4e565b60405180910390f35b610320600480360381019061031b919061227d565b610ed1565b005b61032a610f91565b6040516103379190612dcc565b60405180910390f35b61035a60048036038101906103559190612476565b610fb7565b604051610367919061313c565b60405180910390f35b61038a600480360381019061038591906122a6565b61106a565b6040516103979190612e33565b60405180910390f35b6103ba60048036038101906103b5919061227d565b6110fe565b005b60007f80ac58cd000000000000000000000000000000000000000000000000000000007bffffffffffffffffffffffffffffffffffffffffffffffffffffffff1916827bffffffffffffffffffffffffffffffffffffffffffffffffffffffff1916148061048757507f5b5e139f000000000000000000000000000000000000000000000000000000007bffffffffffffffffffffffffffffffffffffffffffffffffffffffff1916827bffffffffffffffffffffffffffffffffffffffffffffffffffffffff1916145b806104975750610496826111f6565b5b9050919050565b6060600080546104ad9061339c565b80601f01602080910402602001604051908101604052809291908181526020018280546104d99061339c565b80156105265780601f106104fb57610100808354040283529160200191610526565b820191906000526020600020905b81548152906001019060200180831161050957829003601f168201915b5050505050905090565b600061053b82611260565b61057a576040517f08c379a00000000000000000000000000000000000000000000000000000000081526004016105719061305c565b60405180910390fd5b6004600083815260200190815260200160002060009054906101000a900473ffffffffffffffffffffffffffffffffffffffff169050919050565b60006105c082610a59565b90508073ffffffffffffffffffffffffffffffffffffffff168373ffffffffffffffffffffffffffffffffffffffff161415610631576040517f08c379a0000000000000000000000000000000000000000000000000000000008152600401610628906130fc565b60405180910390fd5b8073ffffffffffffffffffffffffffffffffffffffff166106506112cc565b73ffffffffffffffffffffffffffffffffffffffff16148061067f575061067e816106796112cc565b61106a565b5b6106be576040517f08c379a00000000000000000000000000000000000000000000000000000000081526004016106b590612f9c565b60405180910390fd5b6106c883836112d4565b505050565b6106f160405180606001604052806026815260200161359c6026913984848461138d565b6106f9610c4b565b73ffffffffffffffffffffffffffffffffffffffff168373ffffffffffffffffffffffffffffffffffffffff16148061077f5750600960009054906101000a900473ffffffffffffffffffffffffffffffffffffffff1673ffffffffffffffffffffffffffffffffffffffff168373ffffffffffffffffffffffffffffffffffffffff16145b806107bc575061078d610c4b565b73ffffffffffffffffffffffffffffffffffffffff168273ffffffffffffffffffffffffffffffffffffffff16145b806108145750600960009054906101000a900473ffffffffffffffffffffffffffffffffffffffff1673ffffffffffffffffffffffffffffffffffffffff168273ffffffffffffffffffffffffffffffffffffffff16145b610853576040517f08c379a000000000000000000000000000000000000000000000000000000000815260040161084a9061307c565b60405180910390fd5b61086461085e6112cc565b8261142f565b6108a3576040517f08c379a000000000000000000000000000000000000000000000000000000000815260040161089a9061311c565b60405180910390fd5b6108ae83838361150d565b505050565b6108d76040518060600160405280602a8152602001613572602a913984848461138d565b6108df610c4b565b73ffffffffffffffffffffffffffffffffffffffff168373ffffffffffffffffffffffffffffffffffffffff1614806109655750600960009054906101000a900473ffffffffffffffffffffffffffffffffffffffff1673ffffffffffffffffffffffffffffffffffffffff168373ffffffffffffffffffffffffffffffffffffffff16145b806109a25750610973610c4b565b73ffffffffffffffffffffffffffffffffffffffff168273ffffffffffffffffffffffffffffffffffffffff16145b806109fa5750600960009054906101000a900473ffffffffffffffffffffffffffffffffffffffff1673ffffffffffffffffffffffffffffffffffffffff168273ffffffffffffffffffffffffffffffffffffffff16145b610a39576040517f08c379a0000000000000000000000000000000000000000000000000000000008152600401610a3090612f7c565b60405180910390fd5b610a5483838360405180602001604052806000815250610d1d565b505050565b6000806002600084815260200190815260200160002060009054906101000a900473ffffffffffffffffffffffffffffffffffffffff169050600073ffffffffffffffffffffffffffffffffffffffff168173ffffffffffffffffffffffffffffffffffffffff161415610b02576040517f08c379a0000000000000000000000000000000000000000000000000000000008152600401610af990612fdc565b60405180910390fd5b80915050919050565b60008073ffffffffffffffffffffffffffffffffffffffff168273ffffffffffffffffffffffffffffffffffffffff161415610b7c576040517f08c379a0000000000000000000000000000000000000000000000000000000008152600401610b7390612fbc565b60405180910390fd5b600360008373ffffffffffffffffffffffffffffffffffffffff1673ffffffffffffffffffffffffffffffffffffffff168152602001908152602001600020549050919050565b610bcb6112cc565b73ffffffffffffffffffffffffffffffffffffffff16610be9610c4b565b73ffffffffffffffffffffffffffffffffffffffff1614610c3f576040517f08c379a0000000000000000000000000000000000000000000000000000000008152600401610c369061309c565b60405180910390fd5b610c496000611769565b565b6000600760009054906101000a900473ffffffffffffffffffffffffffffffffffffffff16905090565b606060018054610c849061339c565b80601f0160208091040260200160405190810160405280929190818152602001828054610cb09061339c565b8015610cfd5780601f10610cd257610100808354040283529160200191610cfd565b820191906000526020600020905b815481529060010190602001808311610ce057829003601f168201915b5050505050905090565b610d19610d126112cc565b838361182f565b5050565b610d2e610d286112cc565b8361142f565b610d6d576040517f08c379a0000000000000000000000000000000000000000000000000000000008152600401610d649061311c565b60405180910390fd5b610d798484848461199c565b50505050565b6060610d8a82611260565b610dc9576040517f08c379a0000000000000000000000000000000000000000000000000000000008152600401610dc09061303c565b60405180910390fd5b6000600660008481526020019081526020016000208054610de99061339c565b80601f0160208091040260200160405190810160405280929190818152602001828054610e159061339c565b8015610e625780601f10610e3757610100808354040283529160200191610e62565b820191906000526020600020905b815481529060010190602001808311610e4557829003601f168201915b505050505090506000610e736119f8565b9050600081511415610e89578192505050610ecc565b600082511115610ebe578082604051602001610ea6929190612da8565b60405160208183030381529060405292505050610ecc565b610ec784611a0f565b925050505b919050565b610ed96112cc565b73ffffffffffffffffffffffffffffffffffffffff16610ef7610c4b565b73ffffffffffffffffffffffffffffffffffffffff1614610f4d576040517f08c379a0000000000000000000000000000000000000000000000000000000008152600401610f449061309c565b60405180910390fd5b80600960006101000a81548173ffffffffffffffffffffffffffffffffffffffff021916908373ffffffffffffffffffffffffffffffffffffffff16021790555050565b600960009054906101000a900473ffffffffffffffffffffffffffffffffffffffff1681565b6000610fc16112cc565b73ffffffffffffffffffffffffffffffffffffffff16610fdf610c4b565b73ffffffffffffffffffffffffffffffffffffffff1614611035576040517f08c379a000000000000000000000000000000000000000000000000000000000815260040161102c9061309c565b60405180910390fd5b61103f6008611ab6565b600061104b6008611acc565b90506110573382611ada565b6110618184611ca8565b80915050919050565b6000600560008473ffffffffffffffffffffffffffffffffffffffff1673ffffffffffffffffffffffffffffffffffffffff16815260200190815260200160002060008373ffffffffffffffffffffffffffffffffffffffff1673ffffffffffffffffffffffffffffffffffffffff16815260200190815260200160002060009054906101000a900460ff16905092915050565b6111066112cc565b73ffffffffffffffffffffffffffffffffffffffff16611124610c4b565b73ffffffffffffffffffffffffffffffffffffffff161461117a576040517f08c379a00000000000000000000000000000000000000000000000000000000081526004016111719061309c565b60405180910390fd5b600073ffffffffffffffffffffffffffffffffffffffff168173ffffffffffffffffffffffffffffffffffffffff1614156111ea576040517f08c379a00000000000000000000000000000000000000000000000000000000081526004016111e190612edc565b60405180910390fd5b6111f381611769565b50565b60007f01ffc9a7000000000000000000000000000000000000000000000000000000007bffffffffffffffffffffffffffffffffffffffffffffffffffffffff1916827bffffffffffffffffffffffffffffffffffffffffffffffffffffffff1916149050919050565b60008073ffffffffffffffffffffffffffffffffffffffff166002600084815260200190815260200160002060009054906101000a900473ffffffffffffffffffffffffffffffffffffffff1673ffffffffffffffffffffffffffffffffffffffff1614159050919050565b600033905090565b816004600083815260200190815260200160002060006101000a81548173ffffffffffffffffffffffffffffffffffffffff021916908373ffffffffffffffffffffffffffffffffffffffff160217905550808273ffffffffffffffffffffffffffffffffffffffff1661134783610a59565b73ffffffffffffffffffffffffffffffffffffffff167f8c5be1e5ebec7d5bd14f71427d1e84f3dd0314c0f7b2291e5b200ac8c7c3b92560405160405180910390a45050565b611429848484846040516024016113a79493929190612e70565b6040516020818303038152906040527f6eb7943d000000000000000000000000000000000000000000000000000000007bffffffffffffffffffffffffffffffffffffffffffffffffffffffff19166020820180517bffffffffffffffffffffffffffffffffffffffffffffffffffffffff8381831617835250505050611d1c565b50505050565b600061143a82611260565b611479576040517f08c379a000000000000000000000000000000000000000000000000000000000815260040161147090612f5c565b60405180910390fd5b600061148483610a59565b90508073ffffffffffffffffffffffffffffffffffffffff168473ffffffffffffffffffffffffffffffffffffffff1614806114f357508373ffffffffffffffffffffffffffffffffffffffff166114db84610530565b73ffffffffffffffffffffffffffffffffffffffff16145b806115045750611503818561106a565b5b91505092915050565b8273ffffffffffffffffffffffffffffffffffffffff1661152d82610a59565b73ffffffffffffffffffffffffffffffffffffffff1614611583576040517f08c379a000000000000000000000000000000000000000000000000000000000815260040161157a906130bc565b60405180910390fd5b600073ffffffffffffffffffffffffffffffffffffffff168273ffffffffffffffffffffffffffffffffffffffff1614156115f3576040517f08c379a00000000000000000000000000000000000000000000000000000000081526004016115ea90612f1c565b60405180910390fd5b6115fe838383611d45565b6116096000826112d4565b6001600360008573ffffffffffffffffffffffffffffffffffffffff1673ffffffffffffffffffffffffffffffffffffffff168152602001908152602001600020600082825461165991906132b2565b925050819055506001600360008473ffffffffffffffffffffffffffffffffffffffff1673ffffffffffffffffffffffffffffffffffffffff16815260200190815260200160002060008282546116b0919061322b565b92505081905550816002600083815260200190815260200160002060006101000a81548173ffffffffffffffffffffffffffffffffffffffff021916908373ffffffffffffffffffffffffffffffffffffffff160217905550808273ffffffffffffffffffffffffffffffffffffffff168473ffffffffffffffffffffffffffffffffffffffff167fddf252ad1be2c89b69c2b068fc378daa952ba7f163c4a11628f55a4df523b3ef60405160405180910390a4505050565b6000600760009054906101000a900473ffffffffffffffffffffffffffffffffffffffff16905081600760006101000a81548173ffffffffffffffffffffffffffffffffffffffff021916908373ffffffffffffffffffffffffffffffffffffffff1602179055508173ffffffffffffffffffffffffffffffffffffffff168173ffffffffffffffffffffffffffffffffffffffff167f8be0079c531659141344cd1fd0a4f28419497f9722a3daafe3b4186f6b6457e060405160405180910390a35050565b8173ffffffffffffffffffffffffffffffffffffffff168373ffffffffffffffffffffffffffffffffffffffff16141561189e576040517f08c379a000000000000000000000000000000000000000000000000000000000815260040161189590612f3c565b60405180910390fd5b80600560008573ffffffffffffffffffffffffffffffffffffffff1673ffffffffffffffffffffffffffffffffffffffff16815260200190815260200160002060008473ffffffffffffffffffffffffffffffffffffffff1673ffffffffffffffffffffffffffffffffffffffff16815260200190815260200160002060006101000a81548160ff0219169083151502179055508173ffffffffffffffffffffffffffffffffffffffff168373ffffffffffffffffffffffffffffffffffffffff167f17307eab39ab6107e8899845ad3d59bd9653f200f220920489ca2b5937696c318360405161198f9190612e33565b60405180910390a3505050565b6119a784848461150d565b6119b384848484611d4a565b6119f2576040517f08c379a00000000000000000000000000000000000000000000000000000000081526004016119e990612ebc565b60405180910390fd5b50505050565b606060405180602001604052806000815250905090565b6060611a1a82611260565b611a59576040517f08c379a0000000000000000000000000000000000000000000000000000000008152600401611a50906130dc565b60405180910390fd5b6000611a636119f8565b90506000815111611a835760405180602001604052806000815250611aae565b80611a8d84611ee1565b604051602001611a9e929190612da8565b6040516020818303038152906040525b915050919050565b6001816000016000828254019250508190555050565b600081600001549050919050565b600073ffffffffffffffffffffffffffffffffffffffff168273ffffffffffffffffffffffffffffffffffffffff161415611b4a576040517f08c379a0000000000000000000000000000000000000000000000000000000008152600401611b419061301c565b60405180910390fd5b611b5381611260565b15611b93576040517f08c379a0000000000000000000000000000000000000000000000000000000008152600401611b8a90612efc565b60405180910390fd5b611b9f60008383611d45565b6001600360008473ffffffffffffffffffffffffffffffffffffffff1673ffffffffffffffffffffffffffffffffffffffff1681526020019081526020016000206000828254611bef919061322b565b92505081905550816002600083815260200190815260200160002060006101000a81548173ffffffffffffffffffffffffffffffffffffffff021916908373ffffffffffffffffffffffffffffffffffffffff160217905550808273ffffffffffffffffffffffffffffffffffffffff16600073ffffffffffffffffffffffffffffffffffffffff167fddf252ad1be2c89b69c2b068fc378daa952ba7f163c4a11628f55a4df523b3ef60405160405180910390a45050565b611cb182611260565b611cf0576040517f08c379a0000000000000000000000000000000000000000000000000000000008152600401611ce790612ffc565b60405180910390fd5b80600660008481526020019081526020016000209080519060200190611d179291906120a1565b505050565b60008151905060006a636f6e736f6c652e6c6f679050602083016000808483855afa5050505050565b505050565b6000611d6b8473ffffffffffffffffffffffffffffffffffffffff1661208e565b15611ed4578373ffffffffffffffffffffffffffffffffffffffff1663150b7a02611d946112cc565b8786866040518563ffffffff1660e01b8152600401611db69493929190612de7565b602060405180830381600087803b158015611dd057600080fd5b505af1925050508015611e0157506040513d601f19601f82011682018060405250810190611dfe919061244d565b60015b611e84573d8060008114611e31576040519150601f19603f3d011682016040523d82523d6000602084013e611e36565b606091505b50600081511415611e7c576040517f08c379a0000000000000000000000000000000000000000000000000000000008152600401611e7390612ebc565b60405180910390fd5b805181602001fd5b63150b7a0260e01b7bffffffffffffffffffffffffffffffffffffffffffffffffffffffff1916817bffffffffffffffffffffffffffffffffffffffffffffffffffffffff191614915050611ed9565b600190505b949350505050565b60606000821415611f29576040518060400160405280600181526020017f30000000000000000000000000000000000000000000000000000000000000008152509050612089565b600082905060005b60008214611f5b578080611f44906133ce565b915050600a82611f549190613281565b9150611f31565b60008167ffffffffffffffff811115611f9d577f4e487b7100000000000000000000000000000000000000000000000000000000600052604160045260246000fd5b6040519080825280601f01601f191660200182016040528015611fcf5781602001600182028036833780820191505090505b5090505b6000851461208257600182611fe891906132b2565b9150600a85611ff79190613417565b6030612003919061322b565b60f81b81838151811061203f577f4e487b7100000000000000000000000000000000000000000000000000000000600052603260045260246000fd5b60200101907effffffffffffffffffffffffffffffffffffffffffffffffffffffffffffff1916908160001a905350600a8561207b9190613281565b9450611fd3565b8093505050505b919050565b600080823b905060008111915050919050565b8280546120ad9061339c565b90600052602060002090601f0160209004810192826120cf5760008555612116565b82601f106120e857805160ff1916838001178555612116565b82800160010185558215612116579182015b828111156121155782518255916020019190600101906120fa565b5b5090506121239190612127565b5090565b5b80821115612140576000816000905550600101612128565b5090565b600061215761215284613188565b613157565b90508281526020810184848401111561216f57600080fd5b61217a84828561335a565b509392505050565b6000612195612190846131b8565b613157565b9050828152602081018484840111156121ad57600080fd5b6121b884828561335a565b509392505050565b6000813590506121cf81613515565b92915050565b6000813590506121e48161352c565b92915050565b6000813590506121f981613543565b92915050565b60008151905061220e81613543565b92915050565b600082601f83011261222557600080fd5b8135612235848260208601612144565b91505092915050565b600082601f83011261224f57600080fd5b813561225f848260208601612182565b91505092915050565b6000813590506122778161355a565b92915050565b60006020828403121561228f57600080fd5b600061229d848285016121c0565b91505092915050565b600080604083850312156122b957600080fd5b60006122c7858286016121c0565b92505060206122d8858286016121c0565b9150509250929050565b6000806000606084860312156122f757600080fd5b6000612305868287016121c0565b9350506020612316868287016121c0565b925050604061232786828701612268565b9150509250925092565b6000806000806080858703121561234757600080fd5b6000612355878288016121c0565b9450506020612366878288016121c0565b935050604061237787828801612268565b925050606085013567ffffffffffffffff81111561239457600080fd5b6123a087828801612214565b91505092959194509250565b600080604083850312156123bf57600080fd5b60006123cd858286016121c0565b92505060206123de858286016121d5565b9150509250929050565b600080604083850312156123fb57600080fd5b6000612409858286016121c0565b925050602061241a85828601612268565b9150509250929050565b60006020828403121561243657600080fd5b6000612444848285016121ea565b91505092915050565b60006020828403121561245f57600080fd5b600061246d848285016121ff565b91505092915050565b60006020828403121561248857600080fd5b600082013567ffffffffffffffff8111156124a257600080fd5b6124ae8482850161223e565b91505092915050565b6000602082840312156124c957600080fd5b60006124d784828501612268565b91505092915050565b6124e9816132e6565b82525050565b6124f8816132f8565b82525050565b6000612509826131e8565b61251381856131fe565b9350612523818560208601613369565b61252c81613504565b840191505092915050565b6000612542826131f3565b61254c818561320f565b935061255c818560208601613369565b61256581613504565b840191505092915050565b600061257b826131f3565b6125858185613220565b9350612595818560208601613369565b80840191505092915050565b60006125ae60328361320f565b91507f4552433732313a207472616e7366657220746f206e6f6e20455243373231526560008301527f63656976657220696d706c656d656e74657200000000000000000000000000006020830152604082019050919050565b600061261460268361320f565b91507f4f776e61626c653a206e6577206f776e657220697320746865207a65726f206160008301527f64647265737300000000000000000000000000000000000000000000000000006020830152604082019050919050565b600061267a601c8361320f565b91507f4552433732313a20746f6b656e20616c7265616479206d696e746564000000006000830152602082019050919050565b60006126ba60248361320f565b91507f4552433732313a207472616e7366657220746f20746865207a65726f2061646460008301527f72657373000000000000000000000000000000000000000000000000000000006020830152604082019050919050565b600061272060198361320f565b91507f4552433732313a20617070726f766520746f2063616c6c6572000000000000006000830152602082019050919050565b6000612760602c8361320f565b91507f4552433732313a206f70657261746f7220717565727920666f72206e6f6e657860008301527f697374656e7420746f6b656e00000000000000000000000000000000000000006020830152604082019050919050565b60006127c6606e8361320f565b91507f436f756e64206e6f742073616665207472616e73666572206265747765656e2060008301527f706572736f6e202866726f6d2073686f756c64206265206f776e6572206f722060208301527f65786368616e676529206f722028746f2073686f756c64206265206f776e657260408301527f206f722065786368616e676529200000000000000000000000000000000000006060830152608082019050919050565b600061287860388361320f565b91507f4552433732313a20617070726f76652063616c6c6572206973206e6f74206f7760008301527f6e6572206e6f7220617070726f76656420666f7220616c6c00000000000000006020830152604082019050919050565b60006128de602a8361320f565b91507f4552433732313a2062616c616e636520717565727920666f7220746865207a6560008301527f726f2061646472657373000000000000000000000000000000000000000000006020830152604082019050919050565b600061294460298361320f565b91507f4552433732313a206f776e657220717565727920666f72206e6f6e657869737460008301527f656e7420746f6b656e00000000000000000000000000000000000000000000006020830152604082019050919050565b60006129aa602e8361320f565b91507f45524337323155524953746f726167653a2055524920736574206f66206e6f6e60008301527f6578697374656e7420746f6b656e0000000000000000000000000000000000006020830152604082019050919050565b6000612a1060208361320f565b91507f4552433732313a206d696e7420746f20746865207a65726f20616464726573736000830152602082019050919050565b6000612a5060318361320f565b91507f45524337323155524953746f726167653a2055524920717565727920666f722060008301527f6e6f6e6578697374656e7420746f6b656e0000000000000000000000000000006020830152604082019050919050565b6000612ab6602c8361320f565b91507f4552433732313a20617070726f76656420717565727920666f72206e6f6e657860008301527f697374656e7420746f6b656e00000000000000000000000000000000000000006020830152604082019050919050565b6000612b1c60698361320f565b91507f436f756e64206e6f74207472616e73666572206265747765656e20706572736f60008301527f6e202866726f6d2073686f756c64206265206f776e6572206f7220657863686160208301527f6e676529206f722028746f2073686f756c64206265206f776e6572206f72206560408301527f786368616e6765292000000000000000000000000000000000000000000000006060830152608082019050919050565b6000612bce60208361320f565b91507f4f776e61626c653a2063616c6c6572206973206e6f7420746865206f776e65726000830152602082019050919050565b6000612c0e60298361320f565b91507f4552433732313a207472616e73666572206f6620746f6b656e2074686174206960008301527f73206e6f74206f776e00000000000000000000000000000000000000000000006020830152604082019050919050565b6000612c74602f8361320f565b91507f4552433732314d657461646174613a2055524920717565727920666f72206e6f60008301527f6e6578697374656e7420746f6b656e00000000000000000000000000000000006020830152604082019050919050565b6000612cda60218361320f565b91507f4552433732313a20617070726f76616c20746f2063757272656e74206f776e6560008301527f72000000000000000000000000000000000000000000000000000000000000006020830152604082019050919050565b6000612d4060318361320f565b91507f4552433732313a207472616e736665722063616c6c6572206973206e6f74206f60008301527f776e6572206e6f7220617070726f7665640000000000000000000000000000006020830152604082019050919050565b612da281613350565b82525050565b6000612db48285612570565b9150612dc08284612570565b91508190509392505050565b6000602082019050612de160008301846124e0565b92915050565b6000608082019050612dfc60008301876124e0565b612e0960208301866124e0565b612e166040830185612d99565b8181036060830152612e2881846124fe565b905095945050505050565b6000602082019050612e4860008301846124ef565b92915050565b60006020820190508181036000830152612e688184612537565b905092915050565b60006080820190508181036000830152612e8a8187612537565b9050612e9960208301866124e0565b612ea660408301856124e0565b612eb36060830184612d99565b95945050505050565b60006020820190508181036000830152612ed5816125a1565b9050919050565b60006020820190508181036000830152612ef581612607565b9050919050565b60006020820190508181036000830152612f158161266d565b9050919050565b60006020820190508181036000830152612f35816126ad565b9050919050565b60006020820190508181036000830152612f5581612713565b9050919050565b60006020820190508181036000830152612f7581612753565b9050919050565b60006020820190508181036000830152612f95816127b9565b9050919050565b60006020820190508181036000830152612fb58161286b565b9050919050565b60006020820190508181036000830152612fd5816128d1565b9050919050565b60006020820190508181036000830152612ff581612937565b9050919050565b600060208201905081810360008301526130158161299d565b9050919050565b6000602082019050818103600083015261303581612a03565b9050919050565b6000602082019050818103600083015261305581612a43565b9050919050565b6000602082019050818103600083015261307581612aa9565b9050919050565b6000602082019050818103600083015261309581612b0f565b9050919050565b600060208201905081810360008301526130b581612bc1565b9050919050565b600060208201905081810360008301526130d581612c01565b9050919050565b600060208201905081810360008301526130f581612c67565b9050919050565b6000602082019050818103600083015261311581612ccd565b9050919050565b6000602082019050818103600083015261313581612d33565b9050919050565b60006020820190506131516000830184612d99565b92915050565b6000604051905081810181811067ffffffffffffffff8211171561317e5761317d6134d5565b5b8060405250919050565b600067ffffffffffffffff8211156131a3576131a26134d5565b5b601f19601f8301169050602081019050919050565b600067ffffffffffffffff8211156131d3576131d26134d5565b5b601f19601f8301169050602081019050919050565b600081519050919050565b600081519050919050565b600082825260208201905092915050565b600082825260208201905092915050565b600081905092915050565b600061323682613350565b915061324183613350565b9250827fffffffffffffffffffffffffffffffffffffffffffffffffffffffffffffffff0382111561327657613275613448565b5b828201905092915050565b600061328c82613350565b915061329783613350565b9250826132a7576132a6613477565b5b828204905092915050565b60006132bd82613350565b91506132c883613350565b9250828210156132db576132da613448565b5b828203905092915050565b60006132f182613330565b9050919050565b60008115159050919050565b60007fffffffff0000000000000000000000000000000000000000000000000000000082169050919050565b600073ffffffffffffffffffffffffffffffffffffffff82169050919050565b6000819050919050565b82818337600083830152505050565b60005b8381101561338757808201518184015260208101905061336c565b83811115613396576000848401525b50505050565b600060028204905060018216806133b457607f821691505b602082108114156133c8576133c76134a6565b5b50919050565b60006133d982613350565b91507fffffffffffffffffffffffffffffffffffffffffffffffffffffffffffffffff82141561340c5761340b613448565b5b600182019050919050565b600061342282613350565b915061342d83613350565b92508261343d5761343c613477565b5b828206905092915050565b7f4e487b7100000000000000000000000000000000000000000000000000000000600052601160045260246000fd5b7f4e487b7100000000000000000000000000000000000000000000000000000000600052601260045260246000fd5b7f4e487b7100000000000000000000000000000000000000000000000000000000600052602260045260246000fd5b7f4e487b7100000000000000000000000000000000000000000000000000000000600052604160045260246000fd5b6000601f19601f8301169050919050565b61351e816132e6565b811461352957600080fd5b50565b613535816132f8565b811461354057600080fd5b50565b61354c81613304565b811461355757600080fd5b50565b61356381613350565b811461356e57600080fd5b5056fe736166655472616e736665722066726f6d3a2025732c20746f3a2025732c20746f6b656e49643a2025737472616e736665722066726f6d3a2025732c20746f3a2025732c20746f6b656e49643a202573a264697066735822122039db9beb6f773af9020e018edc2bec0f40ad5a6c7f52f808d26a7c0a8beeab3a64736f6c63430008000033",
  "linkReferences": {},
  "deployedLinkReferences": {}
}